:100000000C942A000C9447000C9447000C94470071
:100010000C9447000C94CB060C9447000C944700BA
:100020000C9447000C9447000C9447000C94470034
:100030000C9447000C9447000C9447000C94470024
:100040000C9447000C9447000C9447000C94470014
:100050000C94470011241FBECFE5D8E0DEBFCDBF12
:1000600010E0A0E6B0E0EEECFEE002C005900D92DC
:10007000AC3BB107D9F710E0ACEBB0E001C01D928A
:10008000A23CB107E1F70E94DC040C9465070C94D4
:100090000000823451F1833420F4813409F07BC0B4
:1000A00007C0833409F43EC0843409F074C057C0DB
:1000B000413069F42AB381E090E0AC0102C0440F02
:1000C000551F6A95E2F7BA01622B6ABB08952AB3FD
:1000D00081E090E0AC0102C0440F551F6A95E2F741
:1000E000BA01609562236ABB0895413069F427B371
:1000F00081E090E0AC0102C0440F551F6A95E2F721
:10010000BA01622B67BB089527B381E090E0AC0190
:1001100002C0440F551F6A95E2F7BA016095622349
:1001200067BB0895413069F424B381E090E0AC01ED
:1001300002C0440F551F6A95E2F7BA01622B64BBF7
:10014000089524B381E090E0AC0102C0440F551F34
:100150006A95E2F7BA016095622364BB0895413065
:1001600069F421B381E090E0AC0102C0440F551F57
:100170006A95E2F7BA01622B61BB089521B381E071
:1001800090E0AC0102C0440F551F6A95E2F7BA0136
:100190006095622361BB0895823451F1833420F469
:1001A000813409F07BC007C0833409F43EC0843435
:1001B00009F074C057C0413069F42BB381E090E07E
:1001C000AC0102C0440F551F6A95E2F7BA01622BD9
:1001D0006BBB08952BB381E090E0AC0102C0440FEB
:1001E000551F6A95E2F7BA01609562236BBB0895CB
:1001F000413069F428B381E090E0AC0102C0440FC3
:10020000551F6A95E2F7BA01622B68BB089528B3BF
:1002100081E090E0AC0102C0440F551F6A95E2F7FF
:10022000BA016095622368BB0895413069F425B333
:1002300081E090E0AC0102C0440F551F6A95E2F7DF
:10024000BA01622B65BB089525B381E090E0AC0153
:1002500002C0440F551F6A95E2F7BA016095622308
:1002600065BB0895413069F422B381E090E0AC01B0
:1002700002C0440F551F6A95E2F7BA01622B62BBB8
:10028000089522B381E090E0AC0102C0440F551FF5
:100290006A95E2F7BA016095622362BB08958234E1
:1002A000F1F0833420F4813409F04FC006C0833468
:1002B00041F1843409F049C036C029B381E090E0AF
:1002C000062E02C0880F991F0A94E2F730E08223BD
:1002D000932302C0959587956A95E2F7089526B312
:1002E00081E090E0062E02C0880F991F0A94E2F781
:1002F00030E08223932302C0959587956A95E2F7B3
:10030000089523B381E090E0062E02C0880F991F64
:100310000A94E2F730E08223932302C095958795F3
:100320006A95E2F7089520B381E090E0062E02C0BE
:10033000880F991F0A94E2F730E08223932302C0CA
:10034000959587956A95E2F7089580E0089582343F
:10035000B9F0833418F48134C9F505C08334E9F069
:100360008434A1F527C02BB381E090E0AC0102C03A
:10037000440F551F6A95E2F7BA0162276BBB0895D7
:1003800028B381E090E0AC0102C0440F551F6A958C
:10039000E2F7BA01622768BB089525B381E090E0D7
:1003A000AC0102C0440F551F6A95E2F7BA016227FB
:1003B00065BB089522B381E090E0AC0102C0440F18
:1003C000551F6A95E2F7BA01622762BB089582342D
:1003D00061F0833418F4813469F405C0833439F052
:1003E000843441F406C06ABB089567BB089564BBBA
:1003F000089561BB0895823461F0833418F4813428
:1004000069F405C0833439F0843441F406C06BBB11
:10041000089568BB089565BB089562BB0895823452
:1004200061F0833418F4813471F405C0833439F0F9
:10043000843449F406C089B3089586B3089583B31C
:10044000089580B3089580E00895823451F1833493
:1004500020F4813409F07BC007C0833409F43EC026
:10046000843409F074C057C0413069F42BB381E083
:1004700090E0AC0102C0440F551F6A95E2F7BA0143
:10048000622B6BBB08952BB381E090E0AC0102C0FE
:10049000440F551F6A95E2F7BA01609562236BBB62
:1004A0000895413069F428B381E090E0AC0102C0C6
:1004B000440F551F6A95E2F7BA01622B68BB089595
:1004C00028B381E090E0AC0102C0440F551F6A954B
:1004D000E2F7BA016095622368BB0895413069F480
:1004E00025B381E090E0AC0102C0440F551F6A952E
:1004F000E2F7BA01622B65BB089525B381E090E075
:10050000AC0102C0440F551F6A95E2F7BA0160952D
:10051000622365BB0895413069F422B381E090E025
:10052000AC0102C0440F551F6A95E2F7BA01622B75
:1005300062BB089522B381E090E0AC0102C0440F99
:10054000551F6A95E2F7BA016095622362BB089570
:100550006F70823489F0833418F4813409F505C052
:10056000833489F08434E1F415C08BB3807F8BBB76
:100570008BB3682B6BBB089588B3807F88BB88B32F
:10058000682B68BB089585B3807F85BB85B3682BD6
:1005900065BB089582B3807F82BB82B3682B62BB48
:1005A00008956295607F823489F0833418F4813431
:1005B00009F505C0833489F08434E1F415C08BB3A8
:1005C0008F708BBB8BB3682B6BBB089588B38F7018
:1005D00088BB88B3682B68BB089585B38F7085BBD3
:1005E00085B3682B65BB089582B38F7082BB82B3DD
:1005F000682B62BB089584E490E060E070E041E025
:1006000050E00E94490084E490E061E070E041E045
:1006100050E00E94490084E490E062E070E041E034
:1006200050E00E94490084E490E063E070E041E023
:1006300050E00E94490084E490E064E070E040E013
:1006400050E00E94490084E490E065E070E040E002
:1006500050E00E94490084E490E066E070E040E0F1
:1006600050E00E94490084E490E067E070E040E0E0
:1006700050E00E94490084E490E064E070E041E0D2
:1006800050E00E94250284E490E065E070E041E0E3
:1006900050E00E94250284E490E066E070E041E0D2
:1006A00050E00E94250284E490E067E070E041E0C1
:1006B00050E00E9425020895AF92BF92CF92DF9240
:1006C000EF92FF920F931F93CF93DF93CDB7DEB7D7
:1006D00060970FB6F894DEBF0FBECDBFDE01119656
:1006E000E0E6F0E080E101900D928150E1F7EE2428
:1006F000FF2484E490E060E070E041E050E00E947C
:10070000CC0084E490E061E070E041E050E00E94C1
:10071000CC0084E490E062E070E041E050E00E94B0
:10072000CC0084E490E063E070E041E050E00E949F
:10073000CC00570184E490E0B70140E050E00E9413
:10074000CC0000E010E06801B8016C5F7F4F84E4EA
:1007500090E00E944F01882361F4F501EE0FFF1F26
:10076000EE0FFF1FCE0EDF1EFE01EC0DFD1D818181
:1007700006C00F5F1F4F0430110529F711C06096A6
:100780000FB6F894DEBF0FBECDBFDF91CF911F91A2
:100790000F91FF90EF90DF90CF90BF90AF900895B2
:1007A0000894E11CF11C84E0E816F10409F0A1CFE3
:1007B0008FEFE5CF81E460E041E00E94CC008FE95B
:1007C0009FE00197F1F700C0000081E460E040E0A5
:1007D0000E94CC008FE99FE00197F1F700C0000074
:1007E0000895CF93DF93D82FC62F62956F700E9424
:1007F000D10281E462E040E00E94CC000E94DA0372
:100800008D2F6C2F0E94D10281E462E040E00E94B3
:10081000CC000E94DA038FEC97E00197F1F700C05B
:100820000000DF91CF910895CF93C82F8FEF91EE05
:10083000A4E081509040A040E1F700C000008C2F60
:1008400064E041E00E9449008C2F65E041E00E9495
:1008500049008C2F66E041E00E9449008C2F67E040
:1008600041E00E94490081E460E041E00E944900CB
:1008700081E461E041E00E94490081E462E041E0FE
:100880000E94490081E461E040E00E94CC008C2F8E
:1008900062E00E94F103AFE1BEE41197F1F700C0FE
:1008A00000008C2F68E20E94F1038FEC97E0019723
:1008B000F1F700C000008C2F6CE00E94F103AFEC58
:1008C000B7E01197F1F700C000008C2F61E00E94A3
:1008D000F1038FE19EE40197F1F700C000008C2F37
:1008E00066E00E94F103AFECB7E01197F1F700C0AA
:1008F0000000CF910895CF93DF93D82FC62F629534
:100900006F700E94D10281E462E041E00E94CC005D
:100910000E94DA038D2F6C2F0E94D10281E462E0E5
:1009200041E00E94CC000E94DA038FEC97E001972F
:10093000F1F700C00000DF91CF9108951F93CF938E
:10094000DF93182FEB016881662339F02196812F00
:100950000E947B0469916623D1F7DF91CF911F91AB
:10096000089561E00E94F1038FE19EE40197F1F7A1
:1009700000C000000895262F2150223070F441312C
:1009800070F4442371F0613019F4942F91580AC027
:10099000623041F4942F915405C090E803C090E870
:1009A00001C090E8692F0E94F1038FEC97E0019756
:1009B000F1F700C00000089581E40E9414040E9431
:1009C000FB0282E40E94DC06A09AA19AA29AA39A52
:1009D000A49AA59A81E460E770E00E949E0481E4F5
:1009E00062E041E00E94BB0481E46CE770E00E9499
:1009F0009E040E944B070F2EF5EACF2EF0E0DF2E6B
:100A0000F02D00E710E00F2EFCE7EF2EF0E0FF2EB8
:100A1000F02D0F2EF6E8AF2EF0E0BF2EF02D0F2EAA
:100A2000FFE88F2EF0E09F2EF02D0F2EFAE96F2EAB
:100A3000F0E07F2EF02DCAE00E945C038093C1009D
:100A40008F3F09F40CC1813309F0E9C081E40E94B1
:100A5000B10481E4B5010E949E0481E461E047E0B5
:100A60000E94BB048FEF94E3ACE081509040A04023
:100A7000E1F700C000000E945C03682F8093BF0074
:100A80008F3FC9F381E40E947B048FEF92E5A7E0DA
:100A900081509040A040E1F700C000000E945C033C
:100AA000682F8093C0008F3FC9F381E40E947B04CC
:100AB0008FEF92E5A7E081509040A040E1F700C0A1
:100AC00000009091C00090518091BF00880F282FA6
:100AD000220F220F820F890F8093BD0081E40E94B4
:100AE000B10481E4B4010E949E0481E461E049E024
:100AF0000E94BB048FEF94E3ACE081509040A04093
:100B0000E1F700C000000E945C03682F8093BF00E3
:100B10008F3FC9F381E40E947B048FEF92E5A7E049
:100B200081509040A040E1F700C000000E945C03AB
:100B3000682F8093C0008F3FC9F381E40E947B043B
:100B40008FEF92E5A7E081509040A040E1F700C010
:100B500000009091C00090518091BF00880F282F15
:100B6000220F220F820F890F8093BE0081E40E9422
:100B7000B10481E4B3010E949E0481E461E049E094
:100B80000E94BB048FEF94E3ACE081509040A04002
:100B9000E1F700C000000E945C03682F8093BF0053
:100BA0008F3FC9F381E40E947B048FEF92E5A7E0B9
:100BB00081509040A040E1F700C000000E945C031B
:100BC000682F8093C0008F3FC9F381E40E947B04AB
:100BD0008FEF92E5A7E081509040A040E1F700C080
:100BE00000009091C00090518091BF00880F282F85
:100BF000220F220F820F890F8093BC0081E40E9494
:100C0000B10481E4B8010E949E0481E462E041E005
:100C10000E94BB0481E4B7010E949E0420C081E4CD
:100C20000E94B10481E4B6010E949E048FEF91EE10
:100C3000A4E081509040A040E1F700C0000081E4B2
:100C40000E94B10481E4B8010E949E0481E462E044
:100C500041E00E94BB0481E4B7010E949E04A99A6E
:100C6000AA9AAB9AAC9AAD9AA8988091BC006C2FC6
:100C70000E94590782E4692F0E94E006AFE0B7E2C4
:100C80001197F1F700C00000A89AAA9AAB9AAC9A03
:100C9000AD9AA9988091BC006C2F0E945907682FCB
:100CA00082E40E94E0068FE097E20197F1F700C02E
:100CB0000000A89AA99AAB9AAC9AAD9AAA9880918A
:100CC000BE006C2F0E94590782E4692F0E94E00643
:100CD000AFE0B7E21197F1F700C00000A89AA99A17
:100CE000AA9AAC9AAD9AAB988091BE006C2F0E94E4
:100CF0005907682F82E40E94E0068FE097E201978F
:100D0000F1F700C00000A89AA99AAA9AAB9AAD9AE6
:100D1000AC988091BD006C2F0E94590782E4692F26
:100D20000E94E006AFE0B7E21197F1F700C00000C3
:100D3000A89AA99AAA9AAB9AAC9AAD988091BD004C
:100D40006C2F0E945907682F82E40E94E0068FE012
:100D500097E20197F1F700C000008091BC008C334E
:100D600039F41092BC008091BE008F5F8093BE006A
:100D70008091BE008C3339F41092BE008091BD008A
:100D80008F5F8093BD008091BD00883109F054CE03
:100D90001092BD0051CE1F920F920FB60F921124E8
:100DA0008F938091BC008F5F8093BC008F910F90D8
:100DB0000FBE0F901F9018956FEF0E94E7010895E6
:100DC000CF93DF93CDB7DEB72A970FB6F894DEBF87
:100DD0000FBECDBFDE011196E2EBF0E09AE001908C
:100DE0000D929150E1F7FE01E60FF11D61810E9425
:100DF000FB012A960FB6F894DEBF0FBECDBFDF9180
:100E0000CF91089583B7886083BF80E58CBF83B797
:100E1000816083BF83B7846083BF789489B7826021
:100E200089BF0895BB9A83B7886083BF80E48CBF75
:100E300083B7816083BF83B7846083BF83B78061DA
:100E400083BF0895BB9A83B7806483BF83B78860EC
:100E500083BF80E48CBF83B7816083BF83B7846026
:100E600083BF83B7806183BF83B7806283BF0895E8
:100E7000BB9A83B7806483BF80E48CBF83B78160F3
:100E800083BF83B7846083BF83B7806183BF83B729
:100E9000806283BF089582B5886082BD85B5816018
:100EA00085BD85B5846085BD789489B7806489BF28
:100EB0000895991B79E004C0991F961708F0961BB6
:0E0EC000881F7A95C9F780950895F894FFCFA2
:100ECE003738392F3435362A3132332D41303D2BD8
:100EDE007072657373203120746F3A0073657420DD
:100EEE00636C6F636B00686F7572733D2D2D006DB3
:100EFE00696E757465733D2D2D007365636F6E6439
:100F0E00733D2D2D0077726F6E672063686F696376
:0C0F1E0065003F065B4F666D7D477F6FEE
:00000001FF
